{
  "address": "0x5D1D97E370CC3464639F543200E411aF4e681B76",
  "abi": [
    {
      "inputs": [
        {
          "internalType": "uint256",
          "name": "initialSupply",
          "type": "uint256"
        },
        {
          "internalType": "uint256",
          "name": "_fixedCashbackPointAmount",
          "type": "uint256"
        },
        {
          "internalType": "uint256",
          "name": "_cashbackPointRate",
          "type": "uint256"
        },
        {
          "internalType": "uint256",
          "name": "_jackpotFeeRate",
          "type": "uint256"
        }
      ],
      "stateMutability": "nonpayable",
      "type": "constructor"
    },
    {
      "anonymous": false,
      "inputs": [
        {
          "indexed": true,
          "internalType": "address",
          "name": "owner",
          "type": "address"
        },
        {
          "indexed": true,
          "internalType": "address",
          "name": "spender",
          "type": "address"
        },
        {
          "indexed": false,
          "internalType": "uint256",
          "name": "value",
          "type": "uint256"
        }
      ],
      "name": "Approval",
      "type": "event"
    },
    {
      "anonymous": false,
      "inputs": [
        {
          "indexed": true,
          "internalType": "address",
          "name": "recipient",
          "type": "address"
        },
        {
          "indexed": false,
          "internalType": "uint256",
          "name": "amount",
          "type": "uint256"
        }
      ],
      "name": "CashbackPointRate",
      "type": "event"
    },
    {
      "anonymous": false,
      "inputs": [
        {
          "indexed": true,
          "internalType": "address",
          "name": "recipient",
          "type": "address"
        },
        {
          "indexed": false,
          "internalType": "uint256",
          "name": "amount",
          "type": "uint256"
        }
      ],
      "name": "FixedCashbackPointAmount",
      "type": "event"
    },
    {
      "anonymous": false,
      "inputs": [
        {
          "indexed": true,
          "internalType": "address",
          "name": "winner",
          "type": "address"
        },
        {
          "indexed": false,
          "internalType": "uint256",
          "name": "amount",
          "type": "uint256"
        }
      ],
      "name": "JackpotWon",
      "type": "event"
    },
    {
      "anonymous": false,
      "inputs": [
        {
          "indexed": true,
          "internalType": "address",
          "name": "previousOwner",
          "type": "address"
        },
        {
          "indexed": true,
          "internalType": "address",
          "name": "newOwner",
          "type": "address"
        }
      ],
      "name": "OwnershipTransferred",
      "type": "event"
    },
    {
      "anonymous": false,
      "inputs": [
        {
          "indexed": true,
          "internalType": "address",
          "name": "from",
          "type": "address"
        },
        {
          "indexed": true,
          "internalType": "address",
          "name": "to",
          "type": "address"
        },
        {
          "indexed": false,
          "internalType": "uint256",
          "name": "value",
          "type": "uint256"
        }
      ],
      "name": "Transfer",
      "type": "event"
    },
    {
      "inputs": [
        {
          "internalType": "address",
          "name": "owner",
          "type": "address"
        },
        {
          "internalType": "address",
          "name": "spender",
          "type": "address"
        }
      ],
      "name": "allowance",
      "outputs": [
        {
          "internalType": "uint256",
          "name": "",
          "type": "uint256"
        }
      ],
      "stateMutability": "view",
      "type": "function"
    },
    {
      "inputs": [
        {
          "internalType": "address",
          "name": "spender",
          "type": "address"
        },
        {
          "internalType": "uint256",
          "name": "amount",
          "type": "uint256"
        }
      ],
      "name": "approve",
      "outputs": [
        {
          "internalType": "bool",
          "name": "",
          "type": "bool"
        }
      ],
      "stateMutability": "nonpayable",
      "type": "function"
    },
    {
      "inputs": [
        {
          "internalType": "address",
          "name": "account",
          "type": "address"
        }
      ],
      "name": "balanceOf",
      "outputs": [
        {
          "internalType": "uint256",
          "name": "",
          "type": "uint256"
        }
      ],
      "stateMutability": "view",
      "type": "function"
    },
    {
      "inputs": [],
      "name": "cashbackPointRate",
      "outputs": [
        {
          "internalType": "uint256",
          "name": "",
          "type": "uint256"
        }
      ],
      "stateMutability": "view",
      "type": "function"
    },
    {
      "inputs": [],
      "name": "decimals",
      "outputs": [
        {
          "internalType": "uint8",
          "name": "",
          "type": "uint8"
        }
      ],
      "stateMutability": "view",
      "type": "function"
    },
    {
      "inputs": [
        {
          "internalType": "address",
          "name": "spender",
          "type": "address"
        },
        {
          "internalType": "uint256",
          "name": "subtractedValue",
          "type": "uint256"
        }
      ],
      "name": "decreaseAllowance",
      "outputs": [
        {
          "internalType": "bool",
          "name": "",
          "type": "bool"
        }
      ],
      "stateMutability": "nonpayable",
      "type": "function"
    },
    {
      "inputs": [],
      "name": "fixedCashbackPointAmount",
      "outputs": [
        {
          "internalType": "uint256",
          "name": "",
          "type": "uint256"
        }
      ],
      "stateMutability": "view",
      "type": "function"
    },
    {
      "inputs": [
        {
          "internalType": "address",
          "name": "spender",
          "type": "address"
        },
        {
          "internalType": "uint256",
          "name": "addedValue",
          "type": "uint256"
        }
      ],
      "name": "increaseAllowance",
      "outputs": [
        {
          "internalType": "bool",
          "name": "",
          "type": "bool"
        }
      ],
      "stateMutability": "nonpayable",
      "type": "function"
    },
    {
      "inputs": [],
      "name": "jackpotFeeRate",
      "outputs": [
        {
          "internalType": "uint256",
          "name": "",
          "type": "uint256"
        }
      ],
      "stateMutability": "view",
      "type": "function"
    },
    {
      "inputs": [],
      "name": "jackpotPool",
      "outputs": [
        {
          "internalType": "uint256",
          "name": "",
          "type": "uint256"
        }
      ],
      "stateMutability": "view",
      "type": "function"
    },
    {
      "inputs": [],
      "name": "jackpotWinRate",
      "outputs": [
        {
          "internalType": "uint256",
          "name": "",
          "type": "uint256"
        }
      ],
      "stateMutability": "view",
      "type": "function"
    },
    {
      "inputs": [
        {
          "internalType": "address",
          "name": "",
          "type": "address"
        }
      ],
      "name": "locationPermissions",
      "outputs": [
        {
          "internalType": "bool",
          "name": "isAllowed",
          "type": "bool"
        },
        {
          "internalType": "uint256",
          "name": "maxAmount",
          "type": "uint256"
        }
      ],
      "stateMutability": "view",
      "type": "function"
    },
    {
      "inputs": [],
      "name": "name",
      "outputs": [
        {
          "internalType": "string",
          "name": "",
          "type": "string"
        }
      ],
      "stateMutability": "view",
      "type": "function"
    },
    {
      "inputs": [],
      "name": "owner",
      "outputs": [
        {
          "internalType": "address",
          "name": "",
          "type": "address"
        }
      ],
      "stateMutability": "view",
      "type": "function"
    },
    {
      "inputs": [
        {
          "internalType": "address",
          "name": "",
          "type": "address"
        }
      ],
      "name": "points",
      "outputs": [
        {
          "internalType": "uint256",
          "name": "",
          "type": "uint256"
        }
      ],
      "stateMutability": "view",
      "type": "function"
    },
    {
      "inputs": [
        {
          "internalType": "address",
          "name": "account",
          "type": "address"
        },
        {
          "internalType": "uint256",
          "name": "amount",
          "type": "uint256"
        }
      ],
      "name": "redeemPoints",
      "outputs": [],
      "stateMutability": "nonpayable",
      "type": "function"
    },
    {
      "inputs": [],
      "name": "renounceOwnership",
      "outputs": [],
      "stateMutability": "nonpayable",
      "type": "function"
    },
    {
      "inputs": [
        {
          "internalType": "uint256",
          "name": "_fixedCashbackPointAmount",
          "type": "uint256"
        },
        {
          "internalType": "uint256",
          "name": "_cashbackPointRate",
          "type": "uint256"
        }
      ],
      "name": "setCashback",
      "outputs": [],
      "stateMutability": "nonpayable",
      "type": "function"
    },
    {
      "inputs": [
        {
          "internalType": "uint256",
          "name": "_jackpotFeeRate",
          "type": "uint256"
        }
      ],
      "name": "setJackpotFeeRate",
      "outputs": [],
      "stateMutability": "nonpayable",
      "type": "function"
    },
    {
      "inputs": [
        {
          "internalType": "uint256",
          "name": "_jackpotWinRate",
          "type": "uint256"
        }
      ],
      "name": "setJackpotWinRate",
      "outputs": [],
      "stateMutability": "nonpayable",
      "type": "function"
    },
    {
      "inputs": [
        {
          "internalType": "address",
          "name": "account",
          "type": "address"
        },
        {
          "internalType": "bool",
          "name": "isAllowed",
          "type": "bool"
        },
        {
          "internalType": "uint256",
          "name": "maxAmount",
          "type": "uint256"
        }
      ],
      "name": "setLocationPermission",
      "outputs": [],
      "stateMutability": "nonpayable",
      "type": "function"
    },
    {
      "inputs": [],
      "name": "symbol",
      "outputs": [
        {
          "internalType": "string",
          "name": "",
          "type": "string"
        }
      ],
      "stateMutability": "view",
      "type": "function"
    },
    {
      "inputs": [],
      "name": "totalSupply",
      "outputs": [
        {
          "internalType": "uint256",
          "name": "",
          "type": "uint256"
        }
      ],
      "stateMutability": "view",
      "type": "function"
    },
    {
      "inputs": [
        {
          "internalType": "address",
          "name": "recipient",
          "type": "address"
        },
        {
          "internalType": "uint256",
          "name": "amount",
          "type": "uint256"
        }
      ],
      "name": "transfer",
      "outputs": [
        {
          "internalType": "bool",
          "name": "",
          "type": "bool"
        }
      ],
      "stateMutability": "nonpayable",
      "type": "function"
    },
    {
      "inputs": [
        {
          "internalType": "address",
          "name": "from",
          "type": "address"
        },
        {
          "internalType": "address",
          "name": "to",
          "type": "address"
        },
        {
          "internalType": "uint256",
          "name": "amount",
          "type": "uint256"
        }
      ],
      "name": "transferFrom",
      "outputs": [
        {
          "internalType": "bool",
          "name": "",
          "type": "bool"
        }
      ],
      "stateMutability": "nonpayable",
      "type": "function"
    },
    {
      "inputs": [
        {
          "internalType": "address",
          "name": "newOwner",
          "type": "address"
        }
      ],
      "name": "transferOwnership",
      "outputs": [],
      "stateMutability": "nonpayable",
      "type": "function"
    }
  ],
  "transactionHash": "0xf49d40bc61b382a13fc5606fdee62d8bb845ddb3561643c9b1953f2a8fd0c4a6",
  "args": [
    "1000000000000000000000000",
    100,
    2,
    1
  ],
  "numDeployments": 1,
  "solcInputHash": "8b2aa69bc55bc0ba77bd29fa0d5547fe",
  "bytecode": "0x60806040523480156200001157600080fd5b506040516200144f3803806200144f8339810160408190526200003491620001fc565b6040518060400160405280601081526020016f2530b830b72932bbb0b93239a1b7b4b760811b815250604051806040016040528060048152602001634a50524360e01b81525081600390816200008b9190620002d7565b5060046200009a8282620002d7565b505050620000b7620000b1620000db60201b60201c565b620000df565b620000c3338562000131565b600992909255600a55600755506005600855620003cb565b3390565b600580546001600160a01b038381166001600160a01b0319831681179093556040519116919082907f8be0079c531659141344cd1fd0a4f28419497f9722a3daafe3b4186f6b6457e090600090a35050565b6001600160a01b0382166200018c5760405162461bcd60e51b815260206004820152601f60248201527f45524332303a206d696e7420746f20746865207a65726f206164647265737300604482015260640160405180910390fd5b8060026000828254620001a09190620003a3565b90915550506001600160a01b038216600081815260208181526040808320805486019055518481527fddf252ad1be2c89b69c2b068fc378daa952ba7f163c4a11628f55a4df523b3ef910160405180910390a35050565b505050565b600080600080608085870312156200021357600080fd5b505082516020840151604085015160609095015191969095509092509050565b634e487b7160e01b600052604160045260246000fd5b600181811c908216806200025e57607f821691505b6020821081036200027f57634e487b7160e01b600052602260045260246000fd5b50919050565b601f821115620001f757600081815260208120601f850160051c81016020861015620002ae5750805b601f850160051c820191505b81811015620002cf57828155600101620002ba565b505050505050565b81516001600160401b03811115620002f357620002f362000233565b6200030b8162000304845462000249565b8462000285565b602080601f8311600181146200034357600084156200032a5750858301515b600019600386901b1c1916600185901b178555620002cf565b600085815260208120601f198616915b82811015620003745788860151825594840194600190910190840162000353565b5085821015620003935787850151600019600388901b60f8161c191681555b5050505050600190811b01905550565b80820180821115620003c557634e487b7160e01b600052601160045260246000fd5b92915050565b61107480620003db6000396000f3fe608060405234801561001057600080fd5b506004361061018e5760003560e01c80638ad17f00116100de578063b85da8d211610097578063eec45a8c11610071578063eec45a8c1461036b578063f2fde38b14610374578063f51b2fc714610387578063fc4489d41461039a57600080fd5b8063b85da8d21461033c578063dd62ed3e1461034f578063e2179c651461036257600080fd5b80638ad17f00146102d75780638da5cb5b146102ea57806395d89b4114610305578063a457c2d71461030d578063a9059cbb14610320578063b05b32ae1461033357600080fd5b8063358b81661161014b57806370a082311161012557806370a082311461024d578063715018a6146102765780637838fece1461028057806389ed12a4146102c457600080fd5b8063358b81661461021157806339509351146102315780636f6cdc961461024457600080fd5b806306fdde0314610193578063095ea7b3146101b157806318160ddd146101d4578063190bdb79146101e657806323b872dd146101ef578063313ce56714610202575b600080fd5b61019b6103ad565b6040516101a89190610dcf565b60405180910390f35b6101c46101bf366004610e39565b61043f565b60405190151581526020016101a8565b6002545b6040519081526020016101a8565b6101d860075481565b6101c46101fd366004610e63565b610459565b604051601281526020016101a8565b6101d861021f366004610e9f565b600b6020526000908152604090205481565b6101c461023f366004610e39565b61047d565b6101d860095481565b6101d861025b366004610e9f565b6001600160a01b031660009081526020819052604090205490565b61027e61049f565b005b6102ad61028e366004610e9f565b600c602052600090815260409020805460019091015460ff9091169082565b6040805192151583526020830191909152016101a8565b61027e6102d2366004610ec1565b6104b3565b61027e6102e5366004610f05565b610502565b6005546040516001600160a01b0390911681526020016101a8565b61019b61050f565b6101c461031b366004610e39565b61051e565b6101c461032e366004610e39565b61059e565b6101d860065481565b61027e61034a366004610e39565b610774565b6101d861035d366004610f1e565b610814565b6101d8600a5481565b6101d860085481565b61027e610382366004610e9f565b61083f565b61027e610395366004610f05565b6108b8565b61027e6103a8366004610f51565b6108c5565b6060600380546103bc90610f73565b80601f01602080910402602001604051908101604052809291908181526020018280546103e890610f73565b80156104355780601f1061040a57610100808354040283529160200191610435565b820191906000526020600020905b81548152906001019060200180831161041857829003601f168201915b5050505050905090565b60003361044d8185856108d8565b60019150505b92915050565b6000336104678582856109fc565b610472858585610a76565b506001949350505050565b60003361044d8185856104908383610814565b61049a9190610fc3565b6108d8565b6104a7610c1a565b6104b16000610c74565b565b6104bb610c1a565b604080518082018252921515835260208084019283526001600160a01b03949094166000908152600c9094529092209051815460ff19169015151781559051600190910155565b61050a610c1a565b600755565b6060600480546103bc90610f73565b6000338161052c8286610814565b9050838110156105915760405162461bcd60e51b815260206004820152602560248201527f45524332303a2064656372656173656420616c6c6f77616e63652062656c6f77604482015264207a65726f60d81b60648201526084015b60405180910390fd5b61047282868684036108d8565b6000806064600754846105b19190610fd6565b6105bb9190611003565b905080600660008282546105cf9190610fc3565b90915550600090506105e18285611017565b905060006105ef8683610cc6565b9050801561076b576009546001600160a01b0387166000908152600b602052604081208054909190610622908490610fc3565b90915550506009546040519081526001600160a01b038716907ffe30c72b9a9f5caffea0c8dd346725c0004e18daf448f07008388a71af3805629060200160405180910390a260006064600a548761067a9190610fd6565b6106849190611003565b6001600160a01b0388166000908152600b60205260408120805492935083929091906106b1908490610fc3565b90915550506040518181526001600160a01b038816907ff20d8712ec9d67affecbbb7b178e286ba21c2ee0a01ded35deee4ac26cac829f9060200160405180910390a26008546064610701610cd4565b61070b919061102a565b1015610769576006805460009091556107248882610d10565b876001600160a01b03167fbf737c87eff4ef74213cb228c9e25ca0c4519947f5fcc4a41b221ba93d76a4258260405161075f91815260200190565b60405180910390a2505b505b95945050505050565b61077c610c1a565b6001600160a01b0382166000908152600b60205260409020548111156107d85760405162461bcd60e51b81526020600482015260116024820152704e6f7420656e6f75676820706f696e747360781b6044820152606401610588565b6001600160a01b0382166000908152600b602052604081208054839290610800908490611017565b9091555061081090508282610d10565b5050565b6001600160a01b03918216600090815260016020908152604080832093909416825291909152205490565b610847610c1a565b6001600160a01b0381166108ac5760405162461bcd60e51b815260206004820152602660248201527f4f776e61626c653a206e6577206f776e657220697320746865207a65726f206160448201526564647265737360d01b6064820152608401610588565b6108b581610c74565b50565b6108c0610c1a565b600855565b6108cd610c1a565b600991909155600a55565b6001600160a01b03831661093a5760405162461bcd60e51b8152602060048201526024808201527f45524332303a20617070726f76652066726f6d20746865207a65726f206164646044820152637265737360e01b6064820152608401610588565b6001600160a01b03821661099b5760405162461bcd60e51b815260206004820152602260248201527f45524332303a20617070726f766520746f20746865207a65726f206164647265604482015261737360f01b6064820152608401610588565b6001600160a01b0383811660008181526001602090815260408083209487168084529482529182902085905590518481527f8c5be1e5ebec7d5bd14f71427d1e84f3dd0314c0f7b2291e5b200ac8c7c3b925910160405180910390a3505050565b6000610a088484610814565b90506000198114610a705781811015610a635760405162461bcd60e51b815260206004820152601d60248201527f45524332303a20696e73756666696369656e7420616c6c6f77616e63650000006044820152606401610588565b610a7084848484036108d8565b50505050565b6001600160a01b038316610ada5760405162461bcd60e51b815260206004820152602560248201527f45524332303a207472616e736665722066726f6d20746865207a65726f206164604482015264647265737360d81b6064820152608401610588565b6001600160a01b038216610b3c5760405162461bcd60e51b815260206004820152602360248201527f45524332303a207472616e7366657220746f20746865207a65726f206164647260448201526265737360e81b6064820152608401610588565b6001600160a01b03831660009081526020819052604090205481811015610bb45760405162461bcd60e51b815260206004820152602660248201527f45524332303a207472616e7366657220616d6f756e7420657863656564732062604482015265616c616e636560d01b6064820152608401610588565b6001600160a01b03848116600081815260208181526040808320878703905593871680835291849020805487019055925185815290927fddf252ad1be2c89b69c2b068fc378daa952ba7f163c4a11628f55a4df523b3ef910160405180910390a3610a70565b6005546001600160a01b031633146104b15760405162461bcd60e51b815260206004820181905260248201527f4f776e61626c653a2063616c6c6572206973206e6f7420746865206f776e65726044820152606401610588565b600580546001600160a01b038381166001600160a01b0319831681179093556040519116919082907f8be0079c531659141344cd1fd0a4f28419497f9722a3daafe3b4186f6b6457e090600090a35050565b60003361044d818585610a76565b60004442604051602001610cf2929190918252602082015260400190565b6040516020818303038152906040528051906020012060001c905090565b6001600160a01b038216610d665760405162461bcd60e51b815260206004820152601f60248201527f45524332303a206d696e7420746f20746865207a65726f2061646472657373006044820152606401610588565b8060026000828254610d789190610fc3565b90915550506001600160a01b038216600081815260208181526040808320805486019055518481527fddf252ad1be2c89b69c2b068fc378daa952ba7f163c4a11628f55a4df523b3ef910160405180910390a35050565b600060208083528351808285015260005b81811015610dfc57858101830151858201604001528201610de0565b506000604082860101526040601f19601f8301168501019250505092915050565b80356001600160a01b0381168114610e3457600080fd5b919050565b60008060408385031215610e4c57600080fd5b610e5583610e1d565b946020939093013593505050565b600080600060608486031215610e7857600080fd5b610e8184610e1d565b9250610e8f60208501610e1d565b9150604084013590509250925092565b600060208284031215610eb157600080fd5b610eba82610e1d565b9392505050565b600080600060608486031215610ed657600080fd5b610edf84610e1d565b925060208401358015158114610ef457600080fd5b929592945050506040919091013590565b600060208284031215610f1757600080fd5b5035919050565b60008060408385031215610f3157600080fd5b610f3a83610e1d565b9150610f4860208401610e1d565b90509250929050565b60008060408385031215610f6457600080fd5b50508035926020909101359150565b600181811c90821680610f8757607f821691505b602082108103610fa757634e487b7160e01b600052602260045260246000fd5b50919050565b634e487b7160e01b600052601160045260246000fd5b8082018082111561045357610453610fad565b808202811582820484141761045357610453610fad565b634e487b7160e01b600052601260045260246000fd5b60008261101257611012610fed565b500490565b8181038181111561045357610453610fad565b60008261103957611039610fed565b50069056fea26469706673582212200349e892a0b2b145ccd22f839900d099bfa1c49799d32bc9afaf1945b113b49f64736f6c63430008110033",
  "devdoc": {
    "kind": "dev",
    "methods": {
      "allowance(address,address)": {
        "details": "See {IERC20-allowance}."
      },
      "approve(address,uint256)": {
        "details": "See {IERC20-approve}. NOTE: If `amount` is the maximum `uint256`, the allowance is not updated on `transferFrom`. This is semantically equivalent to an infinite approval. Requirements: - `spender` cannot be the zero address."
      },
      "balanceOf(address)": {
        "details": "See {IERC20-balanceOf}."
      },
      "decimals()": {
        "details": "Returns the number of decimals used to get its user representation. For example, if `decimals` equals `2`, a balance of `505` tokens should be displayed to a user as `5.05` (`505 / 10 ** 2`). Tokens usually opt for a value of 18, imitating the relationship between Ether and Wei. This is the value {ERC20} uses, unless this function is overridden; NOTE: This information is only used for _display_ purposes: it in no way affects any of the arithmetic of the contract, including {IERC20-balanceOf} and {IERC20-transfer}."
      },
      "decreaseAllowance(address,uint256)": {
        "details": "Atomically decreases the allowance granted to `spender` by the caller. This is an alternative to {approve} that can be used as a mitigation for problems described in {IERC20-approve}. Emits an {Approval} event indicating the updated allowance. Requirements: - `spender` cannot be the zero address. - `spender` must have allowance for the caller of at least `subtractedValue`."
      },
      "increaseAllowance(address,uint256)": {
        "details": "Atomically increases the allowance granted to `spender` by the caller. This is an alternative to {approve} that can be used as a mitigation for problems described in {IERC20-approve}. Emits an {Approval} event indicating the updated allowance. Requirements: - `spender` cannot be the zero address."
      },
      "name()": {
        "details": "Returns the name of the token."
      },
      "owner()": {
        "details": "Returns the address of the current owner."
      },
      "renounceOwnership()": {
        "details": "Leaves the contract without owner. It will not be possible to call `onlyOwner` functions anymore. Can only be called by the current owner. NOTE: Renouncing ownership will leave the contract without an owner, thereby removing any functionality that is only available to the owner."
      },
      "symbol()": {
        "details": "Returns the symbol of the token, usually a shorter version of the name."
      },
      "totalSupply()": {
        "details": "See {IERC20-totalSupply}."
      },
      "transferFrom(address,address,uint256)": {
        "details": "See {IERC20-transferFrom}. Emits an {Approval} event indicating the updated allowance. This is not required by the EIP. See the note at the beginning of {ERC20}. NOTE: Does not update the allowance if the current allowance is the maximum `uint256`. Requirements: - `from` and `to` cannot be the zero address. - `from` must have a balance of at least `amount`. - the caller must have allowance for ``from``'s tokens of at least `amount`."
      },
      "transferOwnership(address)": {
        "details": "Transfers ownership of the contract to a new account (`newOwner`). Can only be called by the current owner."
      }
    },
    "version": 1
  },
  "userdoc": {
    "kind": "user",
    "methods": {},
    "version": 1
  },
  "storageLayout": {
    "storage": [
      {
        "astId": 128,
        "contract": "contracts/JapanRewardsCoin.sol:JapanRewardsCoin",
        "label": "_balances",
        "offset": 0,
        "slot": "0",
        "type": "t_mapping(t_address,t_uint256)"
      },
      {
        "astId": 134,
        "contract": "contracts/JapanRewardsCoin.sol:JapanRewardsCoin",
        "label": "_allowances",
        "offset": 0,
        "slot": "1",
        "type": "t_mapping(t_address,t_mapping(t_address,t_uint256))"
      },
      {
        "astId": 136,
        "contract": "contracts/JapanRewardsCoin.sol:JapanRewardsCoin",
        "label": "_totalSupply",
        "offset": 0,
        "slot": "2",
        "type": "t_uint256"
      },
      {
        "astId": 138,
        "contract": "contracts/JapanRewardsCoin.sol:JapanRewardsCoin",
        "label": "_name",
        "offset": 0,
        "slot": "3",
        "type": "t_string_storage"
      },
      {
        "astId": 140,
        "contract": "contracts/JapanRewardsCoin.sol:JapanRewardsCoin",
        "label": "_symbol",
        "offset": 0,
        "slot": "4",
        "type": "t_string_storage"
      },
      {
        "astId": 7,
        "contract": "contracts/JapanRewardsCoin.sol:JapanRewardsCoin",
        "label": "_owner",
        "offset": 0,
        "slot": "5",
        "type": "t_address"
      },
      {
        "astId": 834,
        "contract": "contracts/JapanRewardsCoin.sol:JapanRewardsCoin",
        "label": "jackpotPool",
        "offset": 0,
        "slot": "6",
        "type": "t_uint256"
      },
      {
        "astId": 836,
        "contract": "contracts/JapanRewardsCoin.sol:JapanRewardsCoin",
        "label": "jackpotFeeRate",
        "offset": 0,
        "slot": "7",
        "type": "t_uint256"
      },
      {
        "astId": 838,
        "contract": "contracts/JapanRewardsCoin.sol:JapanRewardsCoin",
        "label": "jackpotWinRate",
        "offset": 0,
        "slot": "8",
        "type": "t_uint256"
      },
      {
        "astId": 840,
        "contract": "contracts/JapanRewardsCoin.sol:JapanRewardsCoin",
        "label": "fixedCashbackPointAmount",
        "offset": 0,
        "slot": "9",
        "type": "t_uint256"
      },
      {
        "astId": 842,
        "contract": "contracts/JapanRewardsCoin.sol:JapanRewardsCoin",
        "label": "cashbackPointRate",
        "offset": 0,
        "slot": "10",
        "type": "t_uint256"
      },
      {
        "astId": 846,
        "contract": "contracts/JapanRewardsCoin.sol:JapanRewardsCoin",
        "label": "points",
        "offset": 0,
        "slot": "11",
        "type": "t_mapping(t_address,t_uint256)"
      },
      {
        "astId": 874,
        "contract": "contracts/JapanRewardsCoin.sol:JapanRewardsCoin",
        "label": "locationPermissions",
        "offset": 0,
        "slot": "12",
        "type": "t_mapping(t_address,t_struct(Location)869_storage)"
      }
    ],
    "types": {
      "t_address": {
        "encoding": "inplace",
        "label": "address",
        "numberOfBytes": "20"
      },
      "t_bool": {
        "encoding": "inplace",
        "label": "bool",
        "numberOfBytes": "1"
      },
      "t_mapping(t_address,t_mapping(t_address,t_uint256))": {
        "encoding": "mapping",
        "key": "t_address",
        "label": "mapping(address => mapping(address => uint256))",
        "numberOfBytes": "32",
        "value": "t_mapping(t_address,t_uint256)"
      },
      "t_mapping(t_address,t_struct(Location)869_storage)": {
        "encoding": "mapping",
        "key": "t_address",
        "label": "mapping(address => struct JapanRewardsCoin.Location)",
        "numberOfBytes": "32",
        "value": "t_struct(Location)869_storage"
      },
      "t_mapping(t_address,t_uint256)": {
        "encoding": "mapping",
        "key": "t_address",
        "label": "mapping(address => uint256)",
        "numberOfBytes": "32",
        "value": "t_uint256"
      },
      "t_string_storage": {
        "encoding": "bytes",
        "label": "string",
        "numberOfBytes": "32"
      },
      "t_struct(Location)869_storage": {
        "encoding": "inplace",
        "label": "struct JapanRewardsCoin.Location",
        "members": [
          {
            "astId": 866,
            "contract": "contracts/JapanRewardsCoin.sol:JapanRewardsCoin",
            "label": "isAllowed",
            "offset": 0,
            "slot": "0",
            "type": "t_bool"
          },
          {
            "astId": 868,
            "contract": "contracts/JapanRewardsCoin.sol:JapanRewardsCoin",
            "label": "maxAmount",
            "offset": 0,
            "slot": "1",
            "type": "t_uint256"
          }
        ],
        "numberOfBytes": "64"
      },
      "t_uint256": {
        "encoding": "inplace",
        "label": "uint256",
        "numberOfBytes": "32"
      }
    }
  }
}